:1000000019C033C032C031C02CC72FC007C72DC0A4
:100010002CC02BC02AC029C028C07DC626C025C040
:10002000B3C623C04FC621C020C01FC01EC01DC004
:100030001CC01BC011241FBECFEFD4E0DEBFCDBF5C
:1000400012E0A0E0B1E0E6EFFCE102C005900D9205
:10005000A835B107D9F723E0A8E5B2E001C01D92A9
:10006000AD3CB207E1F7D5D644CECACF2A98E0918D
:100070000A01F0910B018FEF0995E0910A01F091CF
:100080000B018FEF0995E0910A01F0910B018FEFC1
:100090000995E0910A01F0910B018FEF099589E92B
:1000A00093E00197F1F700C00895CF93DF9380911B
:1000B000C7028B7599F0E0910601F091070109954F
:1000C00090E0A0E0B0E0DC01992788278093CC0283
:1000D0009093CD02A093CE02B093CF02E09106019F
:1000E000F09107010995C5ECD2E04F8158856985EB
:1000F0007A85582B4F83588769877A87E091060164
:10010000F091070109954F81588569857A85482BBB
:100110004F83588769877A87DF91CF910895E1EC03
:10012000F0E0808180688083EFE6F0E0808181608C
:100130008083EEE6F0E08081816080830895CF9334
:10014000DF93E0910401F091050180818F7B808332
:10015000E0910401F09105018081877C88608083B3
:10016000DEDF2A98C5ECD2E0E0910A01F0910B01A4
:1001700088810995E0910801F09109018B819C81AA
:100180000995CDDFDF91CF910895E1ECF0E080811A
:100190008F778083EEE6F0E080818E7F8083EFE6CC
:1001A000F0E080818E7F80830895CF93DF93E0918C
:1001B0000401F0910501808180648083E091040155
:1001C000F09105018081877C80628083DEDF2A9840
:1001D000E0910A01F0910B018091C50209951C99EB
:1001E000FECFE0910601F09107010995C5ECD2E040
:1001F0008A8395DF8A81DF91CF910895CF92DF9234
:10020000EF92FF92CF93C1DFE0910A01F0910B01D1
:100210008091C50209951C99FECF8091C7028B750C
:1002200069F0E0910601F09107010995C82ED12CE3
:10023000E12CF12C7601DD24CC2403C0C12CD12C7F
:100240007601E0910601F09107010995C82FE09130
:100250000601F09107010995C82ADC2A60DFC70171
:10026000B601CF91FF90EF90DF90CF900895CF939C
:10027000DF93E0910401F091050180818064808327
:10028000E0910401F09105018081877C8860808382
:100290007CDF2A98E0910A01F0910B018091C50260
:1002A00009951C99FECFE0910601F091070109958F
:1002B000C5ECD2E01B828C83E0910601F09107012E
:1002C00009952B813C81282B3C832B8328DF8B8154
:1002D0009C81DF91CF910895CF93DF93E09104014A
:1002E000F0910501808180648083E0910401F091A8
:1002F00005018081877C8061808347DF2A98E091B7
:100300000A01F0910B018091C50209951C99FECF5D
:10031000E0910601F09107010995C5ECD2E01D823C
:100320008E83E0910601F091070109952D813E81B0
:10033000282B3E832D83F3DE8D819E81DF91CF912B
:100340000895CF93DF93E0910401F091050180813E
:100350008F7B8083E0910401F09105018081877C8F
:100360008061808312DF2A98C5ECD2E0E0910A0117
:10037000F0910B0188810995E0910801F091090144
:100380008D819E810995CBDEDF91CF910895CF932A
:10039000C82FE0910201F091030167708081887F8E
:1003A000682B6083CEDFE0910001F09101019C2F6A
:1003B0009295990F907E81818F71892B8183299AE3
:1003C00081E38A95F1F70000BADE1C99FECF2998E7
:1003D000E0910401F09105018081806480832A9876
:1003E000CD7FC43091F4E0910401F091050180814A
:1003F000877C8063808302DF6093D0027093D10298
:100400008093D2029093D30210C0E0910401F09146
:100410000501808188638083F1DE6093D40270934C
:10042000D5028093D6029093D702CF910895E091A0
:100430000C01F0910D0109952A9A219A17DE17DF18
:100440004BDFB3DEE0910201F09103018181806115
:100450008183E0910201F091030181818F7D81838D
:10046000E0919C01F0919D018081803110F08FE03E
:100470008083A0919C01B0919D01E8ECF2E08C9109
:10048000982F9F708081807F892B808358DE59DF71
:1004900060E084E07CDF66E084E079DF0895CF935C
:1004A000DF93C82F299A81E38A95F1F700006DDE6A
:1004B000E0910201F0910301C7708081887FC82B11
:1004C000C0832A98E0910001F091010181818F7130
:1004D0008062818336DF33DE1C99FECFE091040118
:1004E000F0910501808180648083E0910401F091A6
:1004F00005018081877C88618083C5ECD2E0E09132
:100500000A01F0910B0188810995CFDD08DE299859
:100510006F81788589859A85DF91CF910895CF92F3
:10052000DF92FF920F931F93CF93DF93C82FE5ECD9
:10053000F2E005811681C380D48027DEE0910201BC
:10054000F09103018C2F87709081987FF92EF82A03
:10055000F0822A98E0910201F091030181818F7E5F
:100560008183E0910001F091010181818F718062AE
:100570008183E7DEE4DD1C99FECFE0910401F09178
:100580000501808180648083E0910401F091050180
:100590008081877C88618083C5ECD2E0E0910A018C
:1005A000F0910B018881099580DDB9DD1E830D83F3
:1005B000DC82CB826F81788589859A85DF91CF91A6
:1005C0001F910F91FF90DF90CF900895AAE7B0E0C0
:1005D0008C9180688C93ECE7F0E080818F7D808344
:1005E00080818F7780838081806480838081807F19
:1005F00080838081876080838C91887F8C938C91AD
:1006000087608C930895A2E0B0E0E8E0F3E02ACAA6
:10061000809178008983809179008A8389819A8189
:100620002296E2E03BCAA8E0B0E0E8E1F3E016CAB7
:10063000FE01319688E0DF011D928A95E9F70AE70D
:1006400010E07E01B9E0EB0EF11C8D819E81988750
:100650008F838B819C819E838D8389819A819C83EA
:100660008B837894F801808180648083D8018C9199
:1006700084FFFCCFC8DF9A838983FE013196AC01E9
:1006800021913191821793070CF4C9012417350782
:100690000CF4A901EE15FF0599F74A5F5F4F481763
:1006A00059079CF22896E6E0F5C9EF92FF921F9356
:1006B000CF93DF93A895ECE7F0E09081907F908353
:1006C0009081892B8083AFDF18E0E12CF12CCAE701
:1006D000D0E0A895988190649883988194FFFDCF8D
:1006E00092DFE80EF91E1150A1F7C7019695879584
:1006F0009695879596958795DF91CF911F91FF905D
:10070000EF900895E0919E01F0919F018081918189
:100710008130944010F0118210820895CF92DF92C0
:10072000EF92FF92CF93DF93E0919E01F0919F01B2
:1007300091838083C0919E01D0919F0168817981CE
:1007400080E090E05AD86B017C019B01AC016DEC1C
:100750007CEC84E890E4BDD79B01AC016AE979E9BF
:1007600089E490E4B6D71DD87B836A8380E090E06B
:1007700044D89B01AC01C701B60142D720E030E06C
:1007800048EC52E4A6D76C837D838E839F83DF91F0
:10079000CF91FF90EF90DF90CF900895CF93DF93AC
:1007A000C0919E01D0919F012A813B81821B930BB6
:1007B000BC0180E090E021D82C813D814E815F8199
:1007C00088D7EFD7862FDF91CF910895CF92DF9210
:1007D000EF92FF92E0919E01F0919F0171836083FF
:1007E000853608F084E6682F70E080E090E007D856
:1007F0002AE037ED43E25CE3B6D82AE939E949E477
:1008000050E4FFD66B017C01E0919E01F0919F01C5
:1008100080819181BC0180E090E0EFD79B01AC0129
:10082000C701B60156D79B01AC016DEC7CEC84E8A6
:1008300090E44FD720E030E040E854E490D8181618
:100840001CF480E094E06ADFFF90EF90DF90CF909F
:100850000895CF93DF93EC0155DFE0919E01F09175
:100860009F01808191818C179D0710F4CE0156DF86
:10087000CE0194DF853618F0BE0184E6A7DFDF9154
:10088000CF910895459A0895459808953D9AFCDFC3
:10089000089598B180E2892788B90895E091A00170
:1008A000F091A101108210925D025A9AEFEFF7E4E5
:1008B0003197F1F700C000005A98FFEF2FE736E1BB
:1008C000F15020403040E1F700C00000882331F1B2
:1008D000E091A001F091A10190819923B9F007C0A6
:1008E000E091A001F091A1019081992379F0E0912C
:1008F0000E01F0910F010995E091CB03F091CC032B
:1009000081E09081913059F080E00895E3E3F7E0D1
:100910003197F1F7815021F78AE008958AE0089530
:10092000FF920F931F93CF93DF938C01F62EEA0172
:10093000E091A001F091A101108210925D02E0917E
:100940001601F091170183EB91E00995E0911601F2
:10095000F0911701C8010995E0911601F091170176
:1009600080EB91E00995209739F1A895E091A001DD
:10097000F091A10180818823B9F008C0A895E09189
:10098000A001F091A1018081882371F0E0910E0116
:10099000F0910F010995E091CB03F091CC03808198
:1009A0008F1561F080E00BC083E397E00197F1F7CA
:1009B000219721F78AE003C08AE001C088E0CDB723
:1009C000DEB7E5E068C8EF92FF920F931F93CF93D5
:1009D000DF937C018B01D42FC22FE091A001F09115
:1009E000A101108210925D02E0911601F0911701B1
:1009F00083EB91E00995E0911601F0911701C70191
:100A00000995E0911401F0911501C8010995E09153
:100A10001601F091170180EB91E00995CC2329F1A3
:100A2000E091A001F091A10180818823B1F007C07D
:100A3000E091A001F091A1018081882371F0E09103
:100A40000E01F0910F010995E091CB03F091CC03D9
:100A500080818D1761F080E00BC083E397E0019700
:100A6000F1F7C15029F78AE003C08AE001C088E0AD
:100A7000CDB7DEB7E6E00EC8CF93C82F7894E091EB
:100A80009A01F0919B018081863010F081E0808393
:100A9000E0919A01F0919B01A081B0E0A655BE4F74
:100AA000E0911001F09111018C910995E0911201F2
:100AB000F09113010995A8958C2FF0DE813081F11A
:100AC000E0919A01F0919B0181E08083E0919A018D
:100AD000F0919B01A081A63028F5B0E0A655BE4F4D
:100AE000E0911001F09111018C910995E0911201B2
:100AF000F09113010995A8958C2FD0DE8130A1F0DB
:100B0000E0919A01F0919B0190819F5F9083E09129
:100B10009A01F0919B01A081A630F8F289E005C00E
:100B200088E003C089E001C088E0CF910895529A1F
:100B300088ECA2DF883009F0FFCF44E650E068E09F
:100B400082EA91E0EDDE44E650E068E086EA91E07A
:100B5000E7DE0895399A419A08953998089584B145
:100B60008C6284B98CE58CBD8DB581608DBD089596
:100B70008EBD0DB407FEFDCF0895CF93C82F892FEA
:100B8000F7DF8C2FF5DFCF9108951EBC0DB407FE63
:100B9000FDCF8EB50895E0ECF0E0908195FFFDCF9C
:100BA0008093C60008950F931F93CF93FC0180811B
:100BB000882351F08F01C0E0EEDFCF5FF801EC0F2A
:100BC000F11D80818111F8CFCF911F910F91089570
:100BD0000F931F93CF93FC018081882351F08F01E5
:100BE000C0E0D9DFCF5FF801EC0FF11D80818111EA
:100BF000F8CFCF911F910F9108958093C40008956D
:100C000088E98093C10086E08093C200089580B790
:100C1000806880BF4CE850E060E070E08FE393E0D4
:100C20002BD885DFD3DC03DCA998EEE6F0E08081E9
:100C300081608083B198EFE6F0E0808181608083FD
:100C4000ECE6F0E08081886080838091530390918E
:100C5000540388559240893B9B4038F088E592E0E8
:100C6000909354038093530304C010925C0210923B
:100C70005B0287E01ADDEDDD4CE850E060E070E0FB
:100C80008FE393E011D880E06ED483E08093D902A3
:100C900086E98093DA02E8E6F0E080818260808372
:100CA00016BC85B5856085BD8FED93EE909385006C
:100CB00080938400E1E8F0E0808185608083D9D36F
:100CC000A895FDCF1F920F920FB60F9211242F936C
:100CD0003F934F935F936F937F938F939F93AF93C4
:100CE000BF93EF93FF938091C6009091C40291113E
:100CF00001C01FD4FF91EF91BF91AF919F918F9150
:100D00007F916F915F914F913F912F910F900FBE07
:100D10000F901F9018951F920F920FB60F921124EB
:100D20002F933F934F935F936F937F938F939F93F3
:100D3000AF93BF93EF93FF9380915B0290915C021E
:100D4000019690935C0280935B0220915303309153
:100D500054032817390708F400DF8FED93EE9093C2
:100D6000850080938400FF91EF91BF91AF919F9197
:100D70008F917F916F915F914F913F912F910F9044
:100D80000FBE0F901F9018951F920F920FB60F92E3
:100D900011242F933F934F935F936F937F938F9380
:100DA0009F93AF93BF93EF93FF9380915A028F5F0E
:100DB00080935A029091D902891710F463DD01C023
:100DC00063DD90915A028091DA02891710F4109233
:100DD0005A02FF91EF91BF91AF919F918F917F91B7
:100DE0006F915F914F913F912F910F900FBE0F9098
:100DF0001F901895F894A89588E18093600099E277
:100E00000FB6F894A895809360000FBE9093600091
:100E10000895A0DEEFDF3ADD35DDF9DE1F920F9297
:100E20000FB60F9211242F933F934F935F936F93BD
:100E30007F938F939F93AF93BF93EF93FF938DDE39
:100E4000FF91EF91BF91AF919F918F917F916F91A2
:100E50005F914F913F912F910F900FBE0F901F9078
:100E600018951F920F920FB60F9211242F933F9354
:100E70004F935F936F937F938F939F93AF93BF93A2
:100E8000EF93FF93339B64C010925C0210925B025D
:100E9000F9DC2FEF8FE392E0215080409040E1F7A2
:100EA00000C00000809158029091590201969093E1
:100EB000590280935802339906C0E6DC1092590219
:100EC0001092580245C0A895889708F43FC02FEFAC
:100ED0008FE191E0215080409040E1F700C0000098
:100EE00044E650E068E087EB91E01ADD2FEF8FE3F6
:100EF00092E0215080409040E1F700C0000044E6BD
:100F000050E066E08BEB91E00BDD5A9A2FEF8FE318
:100F100092E0215080409040E1F700C00000B4DC36
:100F20003399FECF2FEF8FE39BE02150804090401C
:100F3000E1F700C0000011DE2FEF8FE39BE02150AE
:100F400080409040E1F700C0000002C0A2DCA1CFC9
:100F5000FF91EF91BF91AF919F918F917F916F9191
:100F60005F914F913F912F910F900FBE0F901F9067
:100F7000189580E0089580E0089580E00895DC01F0
:100F800012969EE0EFEBF1E001900D929A95E1F759
:100F900081E00895DC0112969BE0EDECF1E0019018
:100FA0000D929A95E1F781E0089524E648E068ED16
:100FB00071E08AED91E007DD80E0089524E648E0E5
:100FC0006EED71E083EE91E0FEDC80E0089544E692
:100FD00050E068E086EA91E0A3DC80E0089544E612
:100FE00050E068E087EE91E09BDC83E08093D902DB
:100FF00086E48093DA0280E0089544E650E068E0F9
:1010000086EA91E08DDC83E08093D90286E98093C3
:10101000DA0280E00895029669D56093D80280E0F4
:1010200008951F93CF93DF93EC018A8181110BC048
:101030008AE190E031D6BE016E5F7F4F4AE090E0DA
:101040009CD581E014C0CE01029650D5162F603198
:1010500068F48AE190E037D6E8ECF2E01F70808116
:10106000807F182B10831A8281E001C080E0DF911D
:10107000CF911F9108950F931F93CF93DF93FC019E
:101080002281222399F0EC0187E00FDB8C01CE0155
:1010900002960FD5B8019ADB48E050E06CE070E0B2
:1010A0008BE493E001D61A8281E001C080E0DF91F9
:1010B000CF911F910F910895AC014E5F5F4F6091EA
:1010C00055037091560380915703909158032AE07D
:1010D0005ED581E00895CF93DF93EC0180E0DFD906
:1010E000AE014E5F5F4F2AE052D581E0DF91CF9194
:1010F0000895CF93DF93EC018A81811118C0AE016E
:101100004E5F5F4F2091530330915403A9E8B8E834
:101110008DD496958795929582958F7089279F702B
:101120008927BC0180E090E02AE031D529C0CE01BA
:101130000296DCD42CE3269FA001279F500D11249A
:101140005093540340935303483582E0580738F4D2
:1011500088E592E0909354038093530309C0413192
:101160005E4030F080E19EE09093540380935303FF
:10117000609153037091540384E190E0B6D51A82D4
:1011800081E0DF91CF910895CF93DF93EC0187E069
:101190008CDA04DBBE016E5F7F4F4AE090E0EDD455
:1011A00081E0DF91CF9108951F93CF93DF93EC01FE
:1011B00029E989E591E0215080409040E1F7000065
:1011C00044E650E068E087EB91E0AADB883049F51F
:1011D0002FEF8FE392E0215080409040E1F700C074
:1011E000000024E648E0BE016E5F7F4F8BEE91E089
:1011F000EADB182F2FEF8FE392E0215080409040E0
:10120000E1F700C0000044E650E068E087EE91E0BE
:1012100087DB883041F481E0183009F080E01A82E1
:1012200003C080E001C080E0DF91CF911F9108955D
:10123000EF92FF920F931F93CF93DF93EC018A817C
:10124000882309F44AC08E010E5F1F4FC80131D4B4
:101250007C018FEF8E0D853008F04AC029E989E5C1
:1012600091E0215080409040E1F7000044E650E0DA
:1012700068E087EB91E054DB8830E1F528EC48E04A
:10128000B8018FEE91E09FDB883081F4D701BB2756
:10129000A655BE4FE0911001F09111018C91099576
:1012A0006E2D8BE190E00FD511E001C010E0A89504
:1012B0002FEF8FEF96E8215080409040E1F700C07B
:1012C00000004CE251E068E087EE91E029DB8830D5
:1012D00009F010E01A82812F0EC08BE190E0DCD47F
:1012E000BE016E5F7F4F4AE090E047D481E003C0CB
:1012F00080E001C080E0CDB7DEB7E6E0CBC3A0E080
:10130000B0E0E4E8F9E0A8C3FC012281222309F45B
:1013100057C0EC018C010E5F1F4FC801CAD3BC013E
:10132000990F880B990B6BD26B017C0120E030E0A8
:101330004CE852ECCAD188230CF444C020E030E0E1
:1013400040E850E4C701B6010AD31816ECF1F9E9F8
:1013500029E531E0F15020403040E1F7000044E65B
:1013600050E068E087EB91E0DBDA883079F528EC33
:1013700048E0B80183EF91E026DB182F8FEF9FEF55
:10138000E8E081509040E040E1F700C000004CE20E
:1013900051E068E087EE91E0C3DA883029F491E00B
:1013A000183019F090E001C090E0F9E929E531E04A
:1013B000F15020403040E1F700001A82892F07C029
:1013C00080E005C080E003C080E001C080E0CDB7D0
:1013D000DEB7E8E05DC3CF93DF93EC0186E09FD8F2
:1013E000AE014E5F5F4F2AE0D2D381E0DF91CF9113
:1013F0000895CF93DF93EC018A81811108C044E600
:1014000050E06CE170E0CE01029636D408C044E6AC
:1014100050E06CE170E0CE01029646D41A8281E081
:10142000DF91CF910895CF93DF93EC018A818111F1
:1014300008C04CE050E060E870E0CE0102961CD499
:1014400008C04CE050E060E870E0CE0102962CD479
:101450001A8281E0DF91CF910895DC01ED91FC913A
:1014600080819181A0DB80EB91E09DDB76DB80E0E9
:1014700008958091C4028823F9F0E0915E02F09112
:101480005F020380F481E02D8EE592E009958823C8
:1014900069F0E0915E02F0915F028081918183DBCF
:1014A00080E692E080DB80EB91E07DDB1092C4026D
:1014B00010925C0210925B020895EF92FF920F93DC
:1014C0001F93CF93DF9308E111E0C0E0D0E07E01ED
:1014D000F801608171818BED92E035D3892BE9F0C1
:1014E000CE01880F991F880F991F8C0F9D1F9C019B
:1014F000285E3E4F30935F0220935E02865E9E4FD1
:101500009093CC038093CB036EED72E080E692E083
:1015100013D381E08093C40208C021960B5F1F4F54
:10152000CA31D105A1F61092C402CDB7DEB7E6E00C
:10153000B1C28A3049F08D3059F4E0915D02F0E09B
:10154000E552FD4F10820895B8DF10925D020895B4
:10155000E0915D0291E09E0F90935D02F0E0E55214
:10156000FD4F80830895CF92DF92EF92FF92CF9349
:10157000C82FA89594D76B017C01A8958C2F8FD785
:10158000C60ED71EE81EF91EF694E794D794C794AA
:10159000C0925503D0925603E0925703F09258033D
:1015A000CF91FF90EF90DF90CF900895CF93DF938E
:1015B000EC0180E0D8DF1A8281E0DF91CF910895BD
:1015C0000F931F936CD700915503109156032091F0
:1015D000570330915803601B710B820B930B1F91C3
:1015E0000F910895CF93DF93EC0180E0E9DFAE0126
:1015F0004E5F5F4F2AE0CBD281E0DF91CF9108951B
:101600005058BB27AA270ED070C161D130F066D1E7
:1016100020F031F49F3F11F41EF456C10EF4E09512
:10162000E7FB4CC1E92F72D180F3BA176207730749
:101630008407950718F071F49EF58AC10EF4E095C1
:101640000B2EBA2FA02D0B01B90190010C01CA017C
:10165000A0011124FF27591B99F0593F50F4503E27
:1016600068F11A16F040A22F232F342F4427585F19
:10167000F3CF469537952795A795F0405395C9F731
:101680007EF41F16BA0B620B730B840BBAF09150E9
:10169000A1F0FF0FBB1F661F771F881FC2F70EC088
:1016A000BA0F621F731F841F48F48795779567955B
:1016B000B795F7959E3F08F0B3CF9395880F08F044
:1016C0009927EE0F979587950895D4D008F481E077
:1016D00008950CD00AC102D140F0F9D030F021F4C5
:1016E0005F3F19F0EBC0511134C1EEC00FD198F338
:1016F0009923C9F35523B1F3951B550BBB27AA2793
:1017000062177307840738F09F5F5F4F220F331F04
:10171000441FAA1FA9F333D00E2E3AF0E0E830D0D0
:1017200091505040E695001CCAF729D0FE2F27D0D3
:10173000660F771F881FBB1F261737074807AB07A1
:10174000B0E809F0BB0B802DBF01FF2793585F4F16
:101750002AF09E3F510568F0B1C0FBC05F3FECF33B
:10176000983EDCF3869577956795B795F7959F5FDB
:10177000C9F7880F911D9695879597F90895E1E02F
:10178000660F771F881FBB1F621773078407BA078E
:1017900020F0621B730B840BBA0BEE1F88F7E095E9
:1017A0000895BCD088F09F5790F0B92F9927B75172
:1017B000A0F0D1F0660F771F881F991F1AF0BA9515
:1017C000C9F712C0B13081F0C3D0B1E00895C0C0F4
:1017D000672F782F8827B85F39F0B93FCCF386950B
:1017E00077956795B395D9F73EF490958095709568
:1017F00061957F4F8F4F9F4F0895E89409C097FBE5
:101800003EF490958095709561957F4F8F4F9F4FD7
:101810009923A9F0F92F96E9BB279395F69587951B
:1018200077956795B795F111F8CFFAF4BB0F11F4DE
:1018300060FF1BC06F5F7F4F8F4F9F4F16C0882385
:1018400011F096E911C0772321F09EE8872F762FBB
:1018500005C0662371F096E8862F70E060E02AF0FC
:101860009A95660F771F881FDAF7880F96958795E8
:1018700097F90895990F0008550FAA0BE0E8FEEFBD
:1018800016161706E807F907C0F012161306E40744
:10189000F50798F0621B730B840B950B39F40A263D
:1018A00061F0232B242B252B21F408950A2609F41B
:1018B000A140A6958FEF811D811D089597F99F671F
:1018C00080E870E060E008959FEF80EC08950024C8
:1018D0000A941616170618060906089500240A9495
:1018E00012161306140605060895092E0394000C1B
:1018F00011F4882352F0BB0F40F4BF2B11F460FFAA
:1019000004C06F5F7F4F8F4F9F4F089557FD9058D2
:10191000440F551F59F05F3F71F04795880F97FBB3
:10192000991F61F09F3F79F087950895121613066D
:101930001406551FF2CF4695F1DF08C0161617069C
:101940001806991FF1CF86957105610508940895D1
:10195000E894BB2766277727CB0197F908958ADF9C
:1019600008F48FEF08950BD0C0CFB1DF28F0B6DFB9
:1019700018F0952309F0A2CFA7CF1124EACFC6DF34
:10198000A0F3959FD1F3950F50E0551F629FF00192
:10199000729FBB27F00DB11D639FAA27F00DB11DEB
:1019A000AA1F649F6627B00DA11D661F829F222774
:1019B000B00DA11D621F739FB00DA11D621F839FFB
:1019C000A00D611D221F749F3327A00D611D231FD1
:1019D000849F600D211D822F762F6A2F11249F571F
:1019E00050408AF0E1F088234AF0EE0FFF1FBB1F42
:1019F000661F771F881F91505040A9F79E3F5105E1
:101A000070F05CCFA6CF5F3FECF3983EDCF3869599
:101A100077956795B795F795E7959F5FC1F7FE2B8B
:101A2000880F911D9695879597F90895A29FB0010B
:101A3000B39FC001A39F01D0B29F700D811D1124DF
:101A4000911D08952F923F924F925F926F927F92D5
:101A50008F929F92AF92BF92CF92DF92EF92FF92BE
:101A60000F931F93CF93DF93CDB7DEB7CA1BDB0B6A
:101A70000FB6F894DEBF0FBECDBF09942A8839880F
:101A800048885F846E847D848C849B84AA84B98416
:101A9000C884DF80EE80FD800C811B81AA81B98122
:101AA000CE0FD11D0FB6F894DEBF0FBECDBFED0136
:101AB0000895FC0188279927E89421912032E9F3C1
:101AC000293010F02E30C8F32B3239F02D3231F49A
:101AD000689403C07FD0820F911D219120532A303A
:101AE000C8F31EF4909581959F4F08951F93FC01B4
:101AF00099278827BC01E89411911032E9F3193035
:101B000010F01E30C8F31B3249F01D3241F46894C6
:101B100005C04BD0610F711D811D911D1191105396
:101B20001A30B8F33EF490958095709561957F4F8B
:101B30008F4F9F4F1F910895FB01DC0101900D9283
:101B40000020E1F70895FB0151915523A9F0BF0151
:101B5000DC014D9145174111E1F759F4CD01019098
:101B6000002049F04D9140154111C9F3FB0141118D
:101B7000EFCF81E090E001970895BB274A3031F420
:101B8000992322F4BDE2909581959F4F4DC0BB27CC
:101B90002A3051F4992342F4BDE2909580957095D6
:101BA00061957F4F8F4F9F4F1EC0592F482F372F62
:101BB000262F660F771F881F991F660F771F881FB4
:101BC000991F620F731F841F951F660F771F881F51
:101BD000991F08957AE0979F902D879F802D910DF2
:101BE00011240895BB27FA01A62F621771058105FC
:101BF0009105330B30FB66F0AA27660F771F881F0D
:101C0000991FAA1FA21710F0A21B63953850A9F7BD
:101C1000A05DAA3308F0A95DA19336F7B111B19385
:101C20001082CA0119C0BB27FB015527AA27880FBC
:101C3000991FAA1FA41710F0A41B83955051B9F740
:101C4000A05DAA3308F0A95DA193009779F7B111BF
:101C5000B1931192CB0100C0DC01FC01672F71919F
:101C60007723E1F7329704C07C916D937083629182
:101C7000AE17BF07C8F30895DC01CB01FC01F99949
:101C8000FECF06C0F2BDE1BDF89A319600B40D92C8
:101C900041505040B8F70895F999FECF92BD81BDEB
:101CA000F89A992780B50895DC01A40FB51F41501B
:101CB000504040F0CB01840F951F2E9105D041502C
:101CC0005040D8F70895262FF999FECF92BD81BDD7
:101CD000F89A019700B4021639F01FBA20BD0FB66A
:101CE000F894FA9AF99A0FBE08950196272FECDF1F
:061CF000EACFF894FFCFDB
:101CF600C802CA02C502C505BD05B805AF05390A41
:101D0600FD050006E805D305F70114F20AFB010EEE
:101D1600C408FF0117EB09030215D60A070211BF13
:101D2600070B0218F9090F0202DE07130207D5078F
:101D3600170203E7071B0205EF07BB0106FD071F96
:101D46000208B907220209BB072802040B082C0265
:101D560001BD0730020B110834020C790838020D58
:101D66003B083C020FD4084002101809440212CA6C
:101D7600074802136B084C02165C085002192D0A1C
:101D860054021A130AF3011B7F095A0359034B0322
:101D9600C402574B500050415200002F170B070347
:101DA6000D0A0041542300454E4400445343005756
:101DB600656967687453696D706C6534004D42439C
:101DC60030342E33362E3500310053435200313233
:101DD600333400504E5500534E44004E414D0042A0
:101DE6004155004D54500044434F0047425400446F
:101DF600544D0053434F0056525300444154005231
:101E06005150005343510050524400434F4E004F2F
:101E16004B004552524F520052505400504F4E0004
:101E260046414400544F460043425400534E41003D
:101E360042535400485257004443480047434F001A
:081E4600504F460053524300C7
:00000001FF
