:1000000019C033C032C031C011C72FC0ECC62DC0DB
:100010002CC02BC02AC029C028C067C626C025C056
:100020009DC623C039C621C020C01FC01EC01DC030
:100030001CC01BC011241FBECFEFD4E0DEBFCDBF5C
:1000400012E0A0E0B1E0E8E9FAE102C005900D920B
:10005000A037B107D9F723E0A0E7B2E001C01D92B5
:10006000A837B207E1F7BAD615CDCACF2A98E091E2
:100070000A01F0910B018FEF0995E0910A01F091CF
:100080000B018FEF0995E0910A01F0910B018FEFC1
:100090000995E0910A01F0910B018FEF099589E92B
:1000A00093E00197F1F700C00895CF92DF92EF92AD
:1000B000FF92CF93DF93809179028B7599F0E09155
:1000C0000601F0910701099590E0A0E0B0E0DC01A5
:1000D0009927882780937E0290937F02A0938002C5
:1000E000B0938102CEE7D2E0C880D980EA80FB805D
:1000F000E0910601F09107010995D82AC882D982BA
:10010000EA82FB82E0910601F09107010995C82A75
:10011000C882D982EA82FB82DF91CF91FF90EF9073
:10012000DF90CF900895E1ECF0E0808180688083DB
:10013000EFE6F0E0808181608083EEE6F0E0808190
:10014000816080830895E0910401F0910501808130
:100150008F7B8083E0910401F09105018081877C91
:1001600088608083E0DF2A98E0910A01F0910B011A
:10017000809177020995E0910801F0910901809141
:100180007A0290917B020995CEDF0895E1ECF0E0D0
:1001900080818F778083EEE6F0E080818E7F8083A0
:1001A000EFE6F0E080818E7F80830895CF93DF9328
:1001B000E0910401F0910501808180648083E091E9
:1001C0000401F09105018081877C80628083DEDFFD
:1001D0002A98E0910A01F0910B018091770209952C
:1001E0001C99FECFE0910601F09107010995C9E73E
:1001F000D2E0888398DF8881DF91CF910895CF92F4
:10020000DF92EF92FF92CF93C1DFE0910A01F0916C
:100210000B018091770209951C99FECF809179029C
:100220008B7569F0E0910601F09107010995C82EE0
:10023000D12CE12CF12C7601DD24CC2403C0C12C7F
:10024000D12C7601E0910601F09107010995C82FA4
:10025000E0910601F09107010995C82ADC2A63DFC5
:10026000C701B601CF91FF90EF90DF90CF90089536
:100270000F931F93CF93DF93E0910401F091050159
:10028000808180648083E0910401F0910501808188
:10029000877C886080837ADF2A98E0910A01F09158
:1002A0000B018091770209951C99FECFE091060120
:1002B000F09107010995082F10E0102F0027CAE7D9
:1002C000D2E019830883E0910601F09107010995B6
:1002D000082B1983088327DF88819981DF91CF91CB
:1002E0001F910F9108950F931F93CF93DF93E09188
:1002F0000401F0910501808180648083E091040114
:10030000F09105018081877C806180833FDF2A989E
:10031000E0910A01F0910B018091770209951C99F7
:10032000FECFE0910601F09107010995082F10E03A
:10033000102F0027CCE7D2E019830883E091060153
:10034000F09107010995082B19830883ECDE888159
:100350009981DF91CF911F910F910895E091040150
:10036000F091050180818F7B8083E0910401F09101
:1003700005018081877C8061808308DF2A98E09175
:100380000A01F0910B01809177020995E091080133
:10039000F091090180917C0290917D020995C3DE64
:1003A0000895CF93C82FE0910201F0910301862FA9
:1003B00087706081687F682B6083D0DFE0910001E7
:1003C000F09101019C2F9295990F907E81818F7100
:1003D000892B8183299A81E38A95F1F70000B3DEA6
:1003E0001C99FECF2998E0910401F09105018081CC
:1003F000806480832A98CD7FC43091F4E091040119
:10040000F09105018081877C80638083F8DE6093B2
:10041000820270938302809384029093850210C0BD
:10042000E0910401F0910501808188638083E7DE1B
:10043000609386027093870280938802909389026A
:10044000CF910895E0910C01F0910D0109952A9A40
:10045000219A0CDE0DDF47DFA9DEE0910201F09169
:100460000301818180618183E0910201F0910301A8
:1004700081818F7D8183E091C001F091C1018081F4
:10048000803110F08FE08083A091C001B091C10154
:10049000EAE7F2E09C919F708081807F892B8083C6
:1004A00052DE5CDF60E084E07CDF66E084E079DFE0
:1004B0000895CF93C82F299A81E38A95F1F7000018
:1004C00065DEE0910201F0910301C7708081887FB1
:1004D000C82BC0832A98E0910001F091010181812D
:1004E0008F71806281833ADF2EDE1C99FECFE0910E
:1004F0000401F0910501808180648083E091040112
:10050000F09105018081877C88618083E0910A01F8
:10051000F0910B01809177020995C7DD04DE2998DF
:1005200060917E0270917F028091800290918102A1
:10053000CF910895FF920F931F93CF93DF93F82EDF
:1005400000917C0210917D02C0917A02D0917B02D1
:100550001DDEE0910201F09103018F2D87709081E3
:10056000987FF92EF82AF0822A98E0910201F09102
:10057000030181818F7E8183E0910001F09101016F
:1005800081818F7180628183E9DEDDDD1C99FECF80
:10059000E0910401F0910501808180648083E09105
:1005A0000401F09105018081877C88618083E0915E
:1005B0000A01F0910B0180917702099576DDB3DD98
:1005C00010937D0200937C02D0937B02C0937A0249
:1005D00060917E0270917F028091800290918102F1
:1005E000DF91CF911F910F91FF900895AAE7B0E09E
:1005F0008C9180688C93ECE7F0E080818F7D808324
:1006000080818F7780838081806480838081807FF8
:1006100080838081876080838C91887F8C938C918C
:1006200087608C930895CF93DF9300D0CDB7DEB76A
:10063000809178008983809179008A8389819A8169
:100640000F900F90DF91CF910895EF92FF920F934B
:100650001F93CF93DF93CDB7DEB728970FB6F894EB
:10066000DEBF0FBECDBFFE01319688E0DF011D92D7
:100670008A95E9F70AE710E07E01B9E0EB0EF11C7C
:100680008D819E8198878F838B819C819E838D83B2
:1006900089819A819C838B837894F801808180641E
:1006A0008083D8018C9184FFFCCFBDDF9A8389833E
:1006B000FE013196AC0121913191821793070CF420
:1006C000C901241735070CF4A901EE15FF0599F7A8
:1006D0004A5F5F4F481759079CF228960FB6F89467
:1006E000DEBF0FBECDBFDF91CF911F910F91FF9065
:1006F000EF900895FF920F931F93CF93DF93A895E8
:10070000ECE7F0E09081907F90839081892B80834B
:100710009CDF6894FF24F3F800E010E0CAE7D0E023
:10072000A895888180648883888184FFFDCF7BDFE2
:10073000080F191FFA94A1F7C80196958795969509
:10074000879596958795DF91CF911F910F91FF9097
:100750000895E091C201F091C301808191818130BF
:10076000944010F0118210820895CF92DF92EF92A0
:10077000FF92CF93DF93E091C201F091C301918387
:100780008083C091C201D091C3016881798180E0EA
:1007900090E03BD76B017C019B01AC016DEC7CECE4
:1007A00084E890E49ED69B01AC016AE979E989E48A
:1007B00090E497D6FED67B836A8380E090E025D7CD
:1007C0009B01AC01C701B60127D620E030E048EC20
:1007D00052E487D66C837D838E839F83DF91CF9194
:1007E000FF90EF90DF90CF900895CF93DF93C0916B
:1007F000C201D091C3012A813B81821B930BBC01B2
:1008000080E090E002D72C813D814E815F8169D6E6
:10081000D0D6862FDF91CF910895CF92DF92EF92BD
:10082000FF92E091C201F091C3017183608385362C
:1008300008F084E6682F70E080E090E0E8D62AE0D7
:1008400037ED43E25CE373D72AE939E949E450E440
:10085000E4D56B017C01E091C201F091C30160819C
:10086000718180E090E0D1D69B01AC01C701B60157
:1008700038D69B01AC016DEC7CEC84E890E431D679
:1008800020E030E040E854E44ED718161CF480E035
:1008900094E06BDFFF90EF90DF90CF900895CF93BF
:1008A000DF93EC0156DFE091C201F091C30180813A
:1008B00091818C179D0710F4CE0157DFCE0195DF93
:1008C000853618F0BE0184E6A8DFDF91CF91089548
:1008D0005B9A08955B980895539AFCDF08959BB145
:1008E00088E089278BB90895109270025A9AEFEF29
:1008F000F7ED3197F1F700C000005A98FFEF2FEBAA
:1009000031E2F15020403040E1F700C00000882380
:10091000E9F090917002913089F404C090917002D6
:10092000913061F410927002E091C401F091C50120
:1009300081E09081913059F080E00895E3E3F7E0A1
:100940003197F1F7815051F789E0089589E00895D2
:10095000FF920F931F93CF93DF938C01F62EEA0142
:1009600010927002E0911401F091150187ED91E071
:100970000995E0911401F0911501C8010995E091E4
:100980001401F091150184ED91E009952097F9F09B
:10099000A89580917002813089F405C0A895809156
:1009A0007002813059F410927002E091C401F0910C
:1009B000C50180818F110DC087E00CC083E397E0F3
:1009C0000197F1F72197209749F789E003C089E063
:1009D00001C080E0DF91CF911F910F91FF900895AA
:1009E000EF92FF920F931F93CF93DF938C01EB0154
:1009F000E42EF22E10927002E0911401F091150194
:100A000087ED91E00995E0911401F0911501C8017D
:100A10000995E0911201F0911301CE010995E09141
:100A20001401F091150184ED91E00995FF20E1F0AA
:100A300080917002813081F404C080917002813015
:100A400059F410927002E091C401F091C5018081C7
:100A50008E110CC087E00BC083E397E00197F1F79C
:100A6000FA9459F789E003C089E001C080E0DF9182
:100A7000CF911F910F91FF90EF9008950F931F93C7
:100A8000CF93DF93062F7894863008F081E0A82F6B
:100A9000B0E0A253BE4FE0910E01F0910F018C9196
:100AA0000995A895802F20DF8130C9F0CFECD1E0E7
:100AB00011E0E0910E01F0910F0189910995A8953F
:100AC000802F12DF813039F4E091BE01F091BF0137
:100AD000108387E007C01F5F163059F702C087E018
:100AE00001C088E0DF91CF911F910F910895CF93BE
:100AF000C82FE0911001F0911101099564E68C2F47
:100B0000BDDF873009F0FFCF44E650E067E086ECB8
:100B100091E01EDF44E650E067E08AEC91E018DFE8
:100B2000CF910895399A419A08953998089584B1DA
:100B30008C6284B98CE58CBD8DB581608DBD0895C6
:100B40008EBD0DB407FEFDCF0895CF93C82F892F1A
:100B5000F7DF8C2FF5DFCF9108951EBC0DB407FE93
:100B6000FDCF8EB50895E0ECF0E0908195FFFDCFCC
:100B70008093C60008951F93CF93DF93EC01888183
:100B8000882349F010E0EFDF1F5FFE01E10FF11D48
:100B900080818111F8CFDF91CF911F9108951F932C
:100BA000CF93DF93EC018881882349F010E0DBDFED
:100BB0001F5FFE01E10FF11D80818111F8CFDF91F0
:100BC000CF911F9108958093C400089588E9809380
:100BD000C10086E08093C200089580B7806880BF1E
:100BE000529A8BE190E019D782DF4CE150E060E04F
:100BF00070E08CE593E001D7F9DC24DCA998EEE6FF
:100C0000F0E0808181608083B198EFE6F0E0808140
:100C100081608083ECE6F0E0808188608083809151
:100C200070039091710388559240893B9B4038F046
:100C300088E592E0909371038093700304C0109252
:100C400075021092740287E055DD29DE4CE150E018
:100C500060E070E08CE593E0E8D680E090D383E03C
:100C600080938B0286E980938C02E8E6F0E0808135
:100C70008260808316BC85B5856085BD8FED93EE5F
:100C80009093850080938400E1E8F0E080818560A6
:100C90008083FFD2A895FDCF1F920F920FB60F92BF
:100CA00011242F933F934F935F936F937F938F9371
:100CB0009F93AF93BF93EF93FF9380917002811145
:100CC00003C08091C6003FD3FF91EF91BF91AF91D8
:100CD0009F918F917F916F915F914F913F912F9154
:100CE0000F900FBE0F901F9018951F920F920FB686
:100CF0000F9211242F933F934F935F936F937F93A2
:100D00008F939F93AF93BF93EF93FF938091740260
:100D100090917502019690937502809374022091D0
:100D20007003309171032817390708F4FEDE8FED48
:100D300093EE9093850080938400FF91EF91BF9193
:100D4000AF919F918F917F916F915F914F913F9163
:100D50002F910F900FBE0F901F9018951F920F921A
:100D60000FB60F9211242F933F934F935F936F937E
:100D70007F938F939F93AF93BF93EF93FF93809154
:100D800073028F5F8093730290918B02891710F426
:100D90009FDD01C09FDD9091730280918C028917C5
:100DA00010F410927302FF91EF91BF91AF919F9158
:100DB0008F917F916F915F914F913F912F910F9004
:100DC0000FBE0F901F901895F894A895E0E6F0E0FC
:100DD0008081886180838FE480830895A3DEF4DFBF
:100DE0007BDD76DDFADE1F920F920FB60F92112493
:100DF0002F933F934F935F936F937F938F939F9323
:100E0000AF93BF93EF93FF9390DEFF91EF91BF916C
:100E1000AF919F918F917F916F915F914F913F9192
:100E20002F910F900FBE0F901F9018951F920F9249
:100E30000FB60F9211242F933F934F935F936F93AD
:100E40007F938F939F93AF93BF93EF93FF93339BC6
:100E500064C010927502109274023ADD2FEF8FE396
:100E600092E0215080409040E1F700C00000809166
:100E700071029091720201969093720280937102B6
:100E8000339906C027DD109272021092710245C09C
:100E9000A895889708F43FC02FEF8FE191E021508B
:100EA00080409040E1F700C0000044E650E067E079
:100EB0008BED91E04DDD2FEF8FE392E021508040EC
:100EC0009040E1F700C0000044E650E065E08FED9F
:100ED00091E03EDD5A9A2FEF8FE392E0215080405F
:100EE0009040E1F700C00000F5DC3399FECF2FEF12
:100EF0008FE39BE0215080409040E1F700C000006C
:100F000014DE2FEF8FE39BE0215080409040E1F70B
:100F100000C0000002C0E3DCA1CFFF91EF91BF91C0
:100F2000AF919F918F917F916F915F914F913F9181
:100F30002F910F900FBE0F901F90189583EE91E0A8
:100F4000909393028093920281E0089581EF91E063
:100F5000909393028093920281E0089580E0089537
:100F600080E0089580E0089524E647E06CEF71E0AA
:100F70008EEF91E035DD80E0089524E647E062E001
:100F800072E087E092E02CDD80E0089544E650E0D6
:100F900067E08AEC91E0DCDC80E0089544E650E014
:100FA00067E08BE092E0D4DC83E080938B0286E400
:100FB00080938C0280E0089544E650E067E08AEC7C
:100FC00091E0C6DC83E080938B0286E980938C02FB
:100FD00080E008955CD460938A0280E00895CF9306
:100FE000DF93FC01208121110CC0C0919202D091AD
:100FF00093028AE190E011D54AE0BE0190E08ED4E0
:1010000015C045D4C62F603108F0CFE06C2F8AE1BF
:1010100090E01AD5EAE7F2E0CF708081807FC82B9C
:10102000C083E0919202F0919302108281E0DF91FF
:10103000CF9108950F931F93CF93DF93EC01888195
:101040008823A9F087E056DB8C01CE0103D4B801D8
:10105000E4DB48E050E06CE070E088E693E0E5D443
:10106000E0919202F0919302108281E001C080E051
:10107000DF91CF911F910F9108954091920250916D
:101080009302609172037091730380917403909145
:1010900075032AE04DD481E00895CF93DF93C0918A
:1010A0009202D091930280E004DA2AE0AE0140D4AB
:1010B00081E0DF91CF910895FC018081811119C0F9
:1010C00040919202509193022091700330917103EC
:1010D000A9E8B8E8B3D396958795929582958F70D5
:1010E00089279F708927BC0180E090E02AE020D406
:1010F0002DC088EF92E0CBD34CE3469F9001479FF1
:10110000300D112430937103209370032835F2E0E1
:101110003F0738F488E592E0909371038093700361
:1011200009C021313E4030F080E19EE09093710390
:1011300080937003609170037091710384E190E07B
:1011400095D4E0919202F0919302108281E008958B
:10115000CF93DF93C0919202D091930287E0CADAD5
:1011600044DB4AE0BE0190E0D9D381E0DF91CF912A
:101170000895CF93DF93EC012FEF8FE191E02150A1
:1011800080409040E1F700C0000044E650E067E096
:101190008BED91E0DDDB873049F52FEF8FE392E0B7
:1011A000215080409040E1F700C0000024E647E075
:1011B000BE018FE092E014DC8730D1F42FEF8FE393
:1011C00092E0215080409040E1F700C0000044E6EA
:1011D00050E067E08BE092E0BBDB873059F4E091B0
:1011E0009202F0919302108281E005C080E003C07A
:1011F00080E001C080E0DF91CF910895CF93DF932D
:10120000C0919202D091930286E094D92AE0AE0177
:101210008FD381E0DF91CF910895FC0120812111CE
:101220000AC044E650E06CE170E080919202909137
:101230009302E3D30AC044E650E06CE170E0F5D3DA
:10124000E0919202F0919302108281E00895FC01F6
:10125000208121110AC040E250E060E870E08091F6
:10126000920290919302C9D30AC040E250E060E834
:1012700070E0DBD3E0919202F0919302108281E062
:10128000089553DCE0919202F0919302108281E084
:101290000895809170028130E1F410927002E09123
:1012A0009002F091910288EF92E00995882369F00D
:1012B00080918D0290918E025EDC809192029091DD
:1012C000930259DC84ED91E056DC10927502109285
:1012D00074020895EF92FF920F931F93CF93DF93C1
:1012E00006E111E0C0E0D0E0F8016081718184E99D
:1012F00092E0FAD2892BC9F0FE01EE0FFF1FEE0F2C
:10130000FF1FEE0FFF1FEC1BFD0BEA5EFE4F87E099
:10131000ADE8B2E001900D928A95E1F767E972E0DD
:1013200088EF92E0DAD281E007C02196095F1F4F73
:10133000C831D105C9F680E0DF91CF911F910F919F
:10134000FF90EF9008958A3049F08D3069F4E09174
:101350007602F0E0EC56FD4F10820895BBDF8093DB
:101360007002109276020895E091760291E09E0F4D
:1013700090937602F0E0EC56FD4F80830895CF9273
:10138000DF92EF92FF92CF93C82FA89592D86B016E
:101390007C01A8958C2F8DD8C60ED71EE81EF91E8D
:1013A000F694E794D794C794C0927203D0927303D3
:1013B000E0927403F0927503CF91FF90EF90DF906D
:1013C000CF90089580E0DBDFE0919202F0919302EC
:1013D000108281E008950F931F936BD800917203E0
:1013E000109173032091740330917503601B710B8E
:1013F000820B930B1F910F910895CF93DF93C091B0
:101400009202D091930280E0E6DF2AE0AE0190D212
:1014100081E0DF91CF9108955058BB27AA270ED0C5
:1014200048C139D130F03ED120F031F49F3F11F462
:101430001EF42EC10EF4E095E7FB24C1E92F4AD13A
:1014400080F3BA17620773078407950718F071F4E1
:101450009EF562C10EF4E0950B2EBA2FA02D0B0164
:10146000B90190010C01CA01A0011124FF27591BE9
:1014700099F0593F50F4503E68F11A16F040A22FEF
:10148000232F342F4427585FF3CF46953795279560
:10149000A795F0405395C9F77EF41F16BA0B620B5F
:1014A000730B840BBAF09150A1F0FF0FBB1F661FA6
:1014B000771F881FC2F70EC0BA0F621F731F841FE9
:1014C00048F4879577956795B795F7959E3F08F00F
:1014D000B3CF9395880F08F09927EE0F97958795CE
:1014E00008950CD0E6C0DED040F0D5D030F021F425
:1014F0005F3F19F0C7C0511110C1CAC0EBD098F3BB
:101500009923C9F35523B1F3951B550BBB27AA2784
:1015100062177307840738F09F5F5F4F220F331FF6
:10152000441FAA1FA9F333D00E2E3AF0E0E830D0C2
:1015300091505040E695001CCAF729D0FE2F27D0C5
:10154000660F771F881FBB1F261737074807AB0793
:10155000B0E809F0BB0B802DBF01FF2793585F4F08
:101560002AF09E3F510568F08DC0D7C05F3FECF375
:10157000983EDCF3869577956795B795F7959F5FCD
:10158000C9F7880F911D9695879597F90895E1E021
:10159000660F771F881FBB1F621773078407BA0780
:1015A00020F0621B730B840BBA0BEE1F88F7E095DB
:1015B000089598D088F09F5790F0B92F9927B75188
:1015C000A0F0D1F0660F771F881F991F1AF0BA9507
:1015D000C9F712C0B13081F09FD0B1E008959CC02E
:1015E000672F782F8827B85F39F0B93FCCF38695FD
:1015F00077956795B395D9F73EF49095809570955A
:1016000061957F4F8F4F9F4F0895E89409C097FBD6
:101610003EF490958095709561957F4F8F4F9F4FC9
:101620009923A9F0F92F96E9BB279395F69587950D
:1016300077956795B795F111F8CFFAF4BB0F11F4D0
:1016400060FF1BC06F5F7F4F8F4F9F4F16C0882377
:1016500011F096E911C0772321F09EE8872F762FAD
:1016600005C0662371F096E8862F70E060E02AF0EE
:101670009A95660F771F881FDAF7880F96958795DA
:1016800097F9089597F99F6780E870E060E0089502
:101690009FEF80EC089500240A941616170618068A
:1016A0000906089500240A94121613061406050666
:1016B0000895092E0394000C11F4882352F0BB0FF7
:1016C00040F4BF2B11F460FF04C06F5F7F4F8F4F5A
:1016D0009F4F089557FD9058440F551F59F05F3F95
:1016E00071F04795880F97FB991F61F09F3F79F044
:1016F00087950895121613061406551FF2CF4695C6
:10170000F1DF08C0161617061806991FF1CF869547
:101710007105610508940895E894BB27662777272B
:10172000CB0197F9089566D008F48FEF08950BD098
:10173000C0CFB1DF28F0B6DF18F0952309F0A2CFB3
:10174000A7CF1124EACFC6DFA0F3959FD1F3950F61
:1017500050E0551F629FF001729FBB27F00DB11D35
:10176000639FAA27F00DB11DAA1F649F6627B00DC5
:10177000A11D661F829F2227B00DA11D621F739FAE
:10178000B00DA11D621F839FA00D611D221F749FBC
:101790003327A00D611D231F849F600D211D822F03
:1017A000762F6A2F11249F5750408AF0E1F088234A
:1017B0004AF0EE0FFF1FBB1F661F771F881F915057
:1017C0005040A9F79E3F510570F05CCFA6CF5F3F18
:1017D000ECF3983EDCF3869577956795B795F7958A
:1017E000E7959F5FC1F7FE2B880F911D9695879512
:1017F00097F90895990F0008550FAA0BE0E8FEEF3E
:1018000016161706E807F907C0F012161306E407C4
:10181000F50798F0621B730B840B950B39F40A26BD
:1018200061F0232B242B252B21F408950A2609F49B
:10183000A140A6958FEF811D811D0895A29FB00143
:10184000B39FC001A39F01D0B29F700D811D1124D1
:10185000911D0895FC0188279927E8942191203251
:10186000E9F3293010F02E30C8F32B3239F02D3245
:1018700031F4689403C07FD0820F911D21912053D1
:101880002A30C8F31EF4909581959F4F08951F93B9
:10189000FC0199278827BC01E89411911032E9F3E3
:1018A000193010F01E30C8F31B3249F01D3241F4DC
:1018B000689405C04BD0610F711D811D911D119160
:1018C00010531A30B8F33EF4909580957095619559
:1018D0007F4F8F4F9F4F1F910895FB01DC010190B7
:1018E0000D920020E1F70895FB0151915523A9F0D5
:1018F000BF01DC014D9145174111E1F759F4CD01CC
:101900000190002049F04D9140154111C9F3FB01B0
:101910004111EFCF81E090E001970895BB274A3055
:1019200031F4992322F4BDE2909581959F4F4DC0EB
:10193000BB272A3051F4992342F4BDE2909580955B
:10194000709561957F4F8F4F9F4F1EC0592F482F25
:10195000372F262F660F771F881F991F660F771F57
:10196000881F991F620F731F841F951F660F771FB3
:10197000881F991F08957AE0979F902D879F802D4B
:10198000910D11240895BB27FA01A62F6217710546
:1019900081059105330B30FB66F0AA27660F771F90
:1019A000881F991FAA1FA21710F0A21B6395385019
:1019B000A9F7A05DAA3308F0A95DA19336F7B1118C
:1019C000B1931082CA0156C0BB27FB015527AA2735
:1019D000880F991FAA1FA41710F0A41B83955051BC
:1019E000B9F7A05DAA3308F0A95DA193009779F734
:1019F000B111B1931192CB013DC0DC01CB01FC01CF
:101A0000F999FECF06C0F2BDE1BDF89A319600B457
:101A10000D9241505040B8F70895F999FECF92BD0C
:101A200081BDF89A992780B50895DC01A40FB51FF0
:101A30004150504040F0CB01840F951F2E9105D0AE
:101A400041505040D8F70895262FF999FECF92BD06
:101A500081BDF89A019700B4021639F01FBA20BD73
:101A60000FB6F894FA9AF99A0FBE08950196272FA7
:101A7000ECDFEACFDC01FC01672F71917723E1F7FE
:101A8000329704C07C916D9370836291AE17BF074B
:081A9000C8F30895F894FFCF9C
:101A98007A027C027702AD05A505A0059705E30546
:101AA800E605CF05BB05130212FD09F80217020D62
:101AB800A808F8021B0215FE08F8021F0213E20923
:101AC800F80223020F9E07F8022702160D09F802F2
:101AD8002B0202BD07F8022F0206B407F8023302F0
:101AE80003C607F802370204CE07F802DF0105DC57
:101AF80007F8023B0207AE07F8023E0208B007F8F3
:101B080002440200EA07F802480201B207F8024C50
:101B1800020AEF07F80250020B5C08F80254020CA4
:101B28001A08F80258020EB908F8025C0210A60753
:101B3800F8026002114D08F8026402143D08F80228
:101B48006802174109F8026C02182709F80277039E
:101B5800760368038F02574B500050415200002F04
:101B6800170B07030D0A0041542300454E44004457
:101B780053430057656967687453696D706C6534C1
:101B8800004D424330342E33362E32003100534359
:101B980052003132333400504E5500534E44004EFB
:101BA800414D0044434F004742540044544D0053B4
:101BB800434F005652530044415400525150005371
:101BC80043510050524400434F4E004F4B00455282
:101BD800524F520052505400504F4E00464144005C
:101BE800544F460043425400534E41004852570058
:101BF8004443480047434F00504F46005352430068
:00000001FF
