:100000000C9434000C9451000C9451000C94510049
:100010000C94AC070C9451000C9488070C9451007C
:100020000C9451000C9451000C9451000C9451000C
:100030000C9451000C94FD060C9451000C9451004A
:100040000C9437070C9451000C94D3060C94510077
:100050000C9451000C9451000C9451000C945100DC
:100060000C9451000C94510011241FBECFEFD8E026
:10007000DEBFCDBF12E0A0E0B1E0ECEDFEE102C0DA
:1000800005900D92A835B107D9F723E0A8E5B2E0B5
:1000900001C01D92AD3CB207E1F70E947E070C94AF
:1000A0006C0F0C9400002A98E0910A01F0910B016A
:1000B0008FEF0995E0910A01F0910B018FEF0995FF
:1000C000E0910A01F0910B018FEF0995E0910A018F
:1000D000F0910B018FEF099589E993E00197F1F712
:1000E00000C00895CF93DF938091C7028B7599F07C
:1000F000E0910601F0910701099590E0A0E0B0E0E1
:10010000DC01992788278093CC029093CD02A0939D
:10011000CE02B093CF02E0910601F091070109955C
:10012000C5ECD2E04F81588569857A85582B4F837D
:10013000588769877A87E0910601F0910701099550
:100140004F81588569857A85482B4F835887698701
:100150007A87DF91CF910895E1ECF0E080818068AB
:100160008083EFE6F0E0808181608083EEE6F0E05E
:100170008081816080830895CF93DF93E0910401B3
:10018000F091050180818F7B8083E0910401F091E3
:1001900005018081877C886080830E94AC002A985A
:1001A000C5ECD2E0E0910A01F0910B01888109953C
:1001B000E0910801F09109018B819C8109950E94D1
:1001C000AC00DF91CF910895E1ECF0E080818F7772
:1001D0008083EEE6F0E080818E7F8083EFE6F0E0C2
:1001E00080818E7F80830895CF93DF93E091040117
:1001F000F0910501808180648083E0910401F09199
:1002000005018081877C806280830E94E4002A98B7
:10021000E0910A01F0910B018091C50209951C99AA
:10022000FECFE0910601F09107010995C5ECD2E0FF
:100230008A830E94AC008A81DF91CF910895CF928A
:10024000DF92EF92FF92CF930E94E400E0910A01C7
:10025000F0910B018091C50209951C99FECF809108
:10026000C7028B7569F0E0910601F09107010995CD
:10027000C82ED12CE12CF12C7601DD24CC2403C036
:10028000C12CD12C7601E0910601F091070109956E
:10029000C82FE0910601F09107010995C82ADC2AD0
:1002A0000E94AC00C701B601CF91FF90EF90DF90A4
:1002B000CF900895CF93DF93E0910401F091050171
:1002C000808180648083E0910401F0910501808148
:1002D000877C886080830E94E4002A98E0910A016C
:1002E000F0910B018091C50209951C99FECFE09118
:1002F0000601F09107010995C5ECD2E01B828C83C1
:10030000E0910601F091070109952B813C81282B92
:100310003C832B830E94AC008B819C81DF91CF9129
:100320000895CF93DF93E0910401F091050180815E
:1003300080648083E0910401F09105018081877CD5
:10034000806180830E94E4002A98E0910A01F09184
:100350000B018091C50209951C99FECFE091060121
:10036000F09107010995C5ECD2E01D828E83E091E2
:100370000601F091070109952D813E81282B3E83CE
:100380002D830E94AC008D819E81DF91CF910895D5
:10039000CF93DF93E0910401F091050180818F7B81
:1003A0008083E0910401F09105018081877C806168
:1003B00080830E94E4002A98C5ECD2E0E0910A0113
:1003C000F0910B0188810995E0910801F0910901F4
:1003D0008D819E8109950E94AC00DF91CF91089597
:1003E000CF93C82FE0910201F091030167708081E3
:1003F000887F682B60830E94C801E0910001F09122
:1004000001019C2F9295990F907E81818F71892B8C
:100410008183299A81E38A95F1F700000E94BC004C
:100420001C99FECF2998E0910401F091050180818B
:10043000806480832A98CD7FC43099F4E0910401D0
:10044000F09105018081877C806380830E941F0179
:100450006093D0027093D1028093D2029093D30222
:1004600011C0E0910401F0910501808188638083CF
:100470000E941F016093D4027093D5028093D6022C
:100480009093D702CF910895E0910C01F0910D0166
:1004900009952A9A219A0E9453000E945A010E94AB
:1004A00091010E94F400E0910201F0910301818129
:1004B00080618183E0910201F091030181818F7D50
:1004C0008183E0919C01F0919D018081803110F049
:1004D0008FE08083A0919C01B0919D01E8ECF2E057
:1004E0008C91982F9F708081807F892B80830E94C0
:1004F000BC000E94C80160E084E00E94F00166E058
:1005000084E00E94F0010895CF93DF93C82F299AC9
:1005100081E38A95F1F700000E94E400E091020176
:10052000F0910301C7708081887FC82BC0832A980F
:10053000E0910001F091010181818F7180628183DE
:100540000E94C8010E94BC001C99FECFE0910401EA
:10055000F0910501808180648083E0910401F09135
:1005600005018081877C88618083C5ECD2E0E091C1
:100570000A01F0910B01888109950E9472000E9486
:10058000AC0029986F81788589859A85DF91CF9114
:100590000895CF92DF92FF920F931F93CF93DF9333
:1005A000C82FE5ECF2E005811681C380D4800E945B
:1005B000E400E0910201F09103018C2F877090819B
:1005C000987FF92EF82AF0822A98E0910201F091A2
:1005D000030181818F7E8183E0910001F09101010F
:1005E00081818F71806281830E94C8010E94BC005A
:1005F0001C99FECFE0910401F09105018081806497
:100600008083E0910401F09105018081877C8861FD
:100610008083C5ECD2E0E0910A01F0910B01888162
:1006200009950E9472000E94AC001E830D83DC823B
:10063000CB826F81788589859A85DF91CF911F91D3
:100640000F91FF90DF90CF900895AAE7B0E08C91D2
:1006500080688C93ECE7F0E080818F7D80838081DF
:100660008F7780838081806480838081807F808396
:100670008081876080838C91887F8C938C91876048
:100680008C930895A2E0B0E0E8E4F3E00C941C0E33
:10069000809178008983809179008A8389819A8109
:1006A0002296E2E00C94380EA8E0B0E0EAE5F3E030
:1006B0000C94180EFE01319688E0DF011D928A9598
:1006C000E9F70AE710E07E01B9E0EB0EF11C8D813D
:1006D0009E8198878F838B819C819E838D83898166
:1006E0009A819C838B837894F801808180648083D5
:1006F000D8018C9184FFFCCF0E9442039A838983A6
:10070000FE013196AC0121913191821793070CF4CF
:10071000C901241735070CF4A901EE15FF0599F757
:100720004A5F5F4F4817590794F22896E6E00C9409
:10073000340EEF92FF921F93CF93DF93A895ECE7CF
:10074000F0E09081907F90839081892B80830E943C
:10075000540318E0E12CF12CCAE7D0E0A895988169
:1007600090649883988194FFFDCF0E944203E80E25
:10077000F91E115099F7C70196958795969587951B
:1007800096958795DF91CF911F91FF90EF900895F7
:10079000E0919E01F0919F01808191818130944090
:1007A00010F0118210820895CF92DF92EF92FF92A3
:1007B000CF93DF93E0919E01F0919F01918380831D
:1007C000C0919E01D0919F016881798180E090E085
:1007D0000E94D90C6B017C019B01AC016DEC7CEC9F
:1007E00084E890E40E94380C9B01AC016AE979E945
:1007F00089E490E40E94380C0E94AA0C7B836A83EF
:1008000080E090E00E94D90C9B01AC01C701B601C9
:100810000E94C60B20E030E048EC52E40E94380C05
:100820006C837D838E839F83DF91CF91FF90EF90C8
:10083000DF90CF900895CF93DF93C0919E01D09128
:100840009F012A813B81821B930BBC0180E090E0D9
:100850000E94D90C2C813D814E815F810E94380C11
:100860000E94AA0C862FDF91CF910895CF92DF923C
:10087000EF92FF92E0919E01F0919F01718360835E
:10088000853608F084E6682F70E080E090E00E94F2
:10089000DB0C2AE037ED43E25CE30E94900D2AE98D
:1008A00039E949E450E40E94C70B6B017C01E091F7
:1008B0009E01F0919F0180819181BC0180E090E0D8
:1008C0000E94D90C9B01AC01C701B6010E94380CF3
:1008D0009B01AC016DEC7CEC84E890E40E94380C48
:1008E00020E030E040E854E40E948B0D181624F418
:1008F00080E094E00E94D403FF90EF90DF90CF90CF
:100900000895CF93DF93EC010E94C803E0919E010C
:10091000F0919F01808191818C179D0718F4CE0181
:100920000E94D403CE010E941B04853620F0BE0134
:1009300084E60E943604DF91CF910895459A089588
:10094000459808953D9A0E94A004089598B180E2C8
:10095000892788B90895E091A001F091A101108242
:1009600010925D025A9AEFEFF7E43197F1F700C069
:1009700000005A98FFEF2FE736E1F1502040304059
:10098000E1F700C00000882331F1E091A001F0916F
:10099000A10190819923B9F007C0E091A001F091E5
:1009A000A1019081992379F0E0910E01F0910F015E
:1009B0000995E091CB03F091CC0381E090819130D7
:1009C00059F080E00895E3E3F7E03197F1F78150C3
:1009D00021F78AE008958AE00895FF920F931F930C
:1009E000CF93DF938C01F62EEA01E091A001F09104
:1009F000A101108210925D02E0911601F0911701A1
:100A000083EB91E00995E0911601F0911701C8017F
:100A10000995E0911601F091170180EB91E009959D
:100A2000209739F1A895E091A001F091A101808172
:100A30008823B9F008C0A895E091A001F091A10128
:100A40008081882371F0E0910E01F0910F010995EA
:100A5000E091CB03F091CC0380818F1561F080E0B1
:100A60000BC083E397E00197F1F7219721F78AE024
:100A700003C08AE001C088E0CDB7DEB7E5E00C94A2
:100A8000350EEF92FF920F931F93CF93DF937C016C
:100A90008B01D42FC22FE091A001F091A10110820F
:100AA00010925D02E0911601F091170183EB91E045
:100AB0000995E0911601F0911701C7010995E091A0
:100AC0001401F0911501C8010995E0911601F0910A
:100AD000170180EB91E00995CC2329F1E091A00169
:100AE000F091A10180818823B1F007C0E091A001BD
:100AF000F091A1018081882371F0E0910E01F091C5
:100B00000F010995E091CB03F091CC0380818D1703
:100B100061F080E00BC083E397E00197F1F7C150EB
:100B200029F78AE003C08AE001C088E0CDB7DEB7CC
:100B3000E6E00C94340ECF93C82F7894E0919A019C
:100B4000F0919B018081863010F081E08083E091FC
:100B50009A01F0919B01A081B0E0A655BE4FE091B3
:100B60001001F09111018C910995E0911201F09121
:100B700013010995A8958C2F0E94AB04813089F14F
:100B8000E0919A01F0919B0181E08083E0919A01CC
:100B9000F0919B01A081A63030F5B0E0A655BE4F84
:100BA000E0911001F09111018C910995E0911201F1
:100BB000F09113010995A8958C2F0E94AB04813008
:100BC000A1F0E0919A01F0919B0190819F5F908349
:100BD000E0919A01F0919B01A081A630F0F289E0AA
:100BE00005C088E003C089E001C088E0CF91089586
:100BF000529A88EC0E949B05883009F0FFCF44E6AA
:100C000050E068E082EA91E00E94ED0444E650E0A2
:100C100068E086EA91E00E94ED040895399A419ACD
:100C200008953998089584B18C6284B98CE58CBD9F
:100C30008DB581608DBD08958EBD0DB407FEFDCFCD
:100C40000895CF93C82F892F0E941C068C2F0E94D5
:100C50001C06CF9108951EBC0DB407FEFDCF8EB5C6
:100C60000895E0ECF0E0908195FFFDCF8093C60001
:100C700008950F931F93CF93FC018081882359F02F
:100C80008F01C0E00E943106CF5FF801EC0FF11D2B
:100C900080818111F7CFCF911F910F9108950F930C
:100CA0001F93CF93FC018081882359F08F01C0E00E
:100CB0000E943106CF5FF801EC0FF11D8081811198
:100CC000F7CFCF911F910F9108958093C40008959D
:100CD00088E98093C10086E08093C200089580B7C0
:100CE000806880BF4CE850E060E070E08FE393E004
:100CF0000E942C0F0E94F8050E9425030E944402C6
:100D0000A998EEE6F0E0808181608083B198EFE6FB
:100D1000F0E0808181608083ECE6F0E08081886093
:100D20008083809153039091540388559240893B6E
:100D30009B4038F088E592E09093540380935303EE
:100D400004C010925C0210925B0287E00E9499033B
:100D50000E9481044CE850E060E070E08FE393E093
:100D60000E94440F80E00E94730B83E08093D902BD
:100D700086E98093DA02E8E6F0E080818260808391
:100D800016BC85B5856085BD8FED93EE909385008B
:100D900080938400E1E8F0E08081856080830E9498
:100DA000F20AA895FCCF1F920F920FB60F92112452
:100DB0002F933F934F935F936F937F938F939F9363
:100DC000AF93BF93EF93FF938091C6009091C402BD
:100DD000911102C00E94580BFF91EF91BF91AF910A
:100DE0009F918F917F916F915F914F913F912F9143
:100DF0000F900FBE0F901F9018951F920F920FB675
:100E00000F9211242F933F934F935F936F937F9390
:100E10008F939F93AF93BF93EF93FF9380915B0268
:100E200090915C02019690935C0280935B0220910A
:100E30005303309154032817390710F40E94110608
:100E40008FED93EE9093850080938400FF91EF9156
:100E5000BF91AF919F918F917F916F915F914F91D2
:100E60003F912F910F900FBE0F901F9018951F92DA
:100E70000F920FB60F9211242F933F934F935F93CE
:100E80006F937F938F939F93AF93BF93EF93FF9352
:100E900080915A028F5F80935A029091D9028917EC
:100EA00018F40E949E0402C00E94A00490915A026D
:100EB0008091DA02891710F410925A02FF91EF9193
:100EC000BF91AF919F918F917F916F915F914F9162
:100ED0003F912F910F900FBE0F901F901895F8948F
:100EE000A89588E18093600099E20FB6F894A895E0
:100EF000809360000FBE9093600008950E940E06DC
:100F00000E946F070E94A2040E949E040E946F0626
:100F10001F920F920FB60F9211242F933F934F936E
:100F20005F936F937F938F939F93AF93BF93EF9351
:100F3000FF930E941106FF91EF91BF91AF919F9196
:100F40008F917F916F915F914F913F912F910F9072
:100F50000FBE0F901F9018951F920F920FB60F9211
:100F600011242F933F934F935F936F937F938F93AE
:100F70009F93AF93BF93EF93FF93339B6BC01092FC
:100F80005C0210925B020E949E042FEF8FE392E0BE
:100F9000215080409040E1F700C00000809158024D
:100FA0009091590201969093590280935802339977
:100FB00007C00E94A00410925902109258024AC021
:100FC000A895889708F443C02FEF8FE191E0215056
:100FD00080409040E1F700C0000044E650E068E047
:100FE00087EB91E00E94ED042FEF8FE392E0215018
:100FF00080409040E1F700C0000044E650E066E029
:101000008BEB91E00E94ED045A9A2FEF8FE392E070
:10101000215080409040E1F700C000000E94A004F1
:101020003399FECF2FEF8FE39BE02150804090401B
:10103000E1F700C000000E9411062FEF8FE39BE054
:10104000215080409040E1F700C0000003C00E94A2
:10105000A6049BCFFF91EF91BF91AF919F918F918C
:101060007F916F915F914F913F912F910F900FBEA4
:101070000F901F90189580E0089580E0089580E01B
:101080000895DC0112969EE0EFEBF1E001900D92E5
:101090009A95E1F781E00895DC0112969BE0EDEC72
:1010A000F1E001900D929A95E1F781E0089524E630
:1010B00048E068ED71E08AED91E00E94410580E032
:1010C000089524E648E06EED71E083EE91E00E9421
:1010D000410580E0089544E650E068E086EA91E04A
:1010E0000E94ED0480E0089544E650E068E087EE59
:1010F00091E00E94ED0483E08093D90286E480931E
:10110000DA0280E0089544E650E068E086EA91E083
:101110000E94ED0483E08093D90286E98093DA028D
:1011200080E0089502960E94610E6093D80280E0EC
:1011300008951F93CF93DF93EC018A8181110DC035
:101140008AE190E00E943C0FBE016E5F7F4F4AE053
:1011500090E00E94A90E81E016C0CE0102960E9486
:10116000610E162F603170F48AE190E00E94540FF6
:10117000E8ECF2E01F708081807F182B10831A82C8
:1011800081E001C080E0DF91CF911F9108950F931E
:101190001F93CF93DF93FC0122812223B9F0EC014E
:1011A00087E00E9499038C01CE0102960E94430EB3
:1011B000B8010E94360448E050E06CE070E08BE437
:1011C00093E00E94440F1A8281E001C080E0DF9129
:1011D000CF911F910F910895AC014E5F5F4F6091C9
:1011E00055037091560380915703909158032AE05C
:1011F0000E94B40E81E00895CF93DF93EC0180E06C
:101200000E948402AE014E5F5F4F2AE00E94B40E3E
:1012100081E0DF91CF910895CF93DF93EC018A8134
:1012200081111AC0AE014E5F5F4F20915303309180
:101230005403A9E8B8E80E94FD0D9695879592950C
:1012400082958F7089279F708927BC0180E090E08C
:101250002AE00E94B40E2BC0CE0102960E94610EBD
:101260002CE3269FA001279F500D11245093540377
:1012700040935303483582E0580738F488E592E0FC
:10128000909354038093530309C041315E4030F082
:1012900080E19EE090935403809353036091530345
:1012A0007091540384E190E00E94660F1A8281E0FD
:1012B000DF91CF910895CF93DF93EC0187E00E94F7
:1012C00099030E941B04BE016E5F7F4F4AE090E0CD
:1012D0000E94A90E81E0DF91CF9108951F93CF93D3
:1012E000DF93EC0129E989E591E0215080409040AD
:1012F000E1F7000044E650E068E087EB91E00E94EF
:10130000ED04883059F52FEF8FE392E021508040B3
:101310009040E1F700C0000024E648E0BE016E5FA7
:101320007F4F8BEE91E00E944105182F2FEF8FE346
:1013300092E0215080409040E1F700C0000044E678
:1013400050E068E087EE91E00E94ED04883041F4BF
:1013500081E0183009F080E01A8203C080E001C00B
:1013600080E0DF91CF911F910895EF92FF920F934C
:101370001F93CF93DF93EC018A81882309F450C037
:101380008E010E5F1F4FC8010E94430E7C018FEF3C
:101390008E0D853008F051C029E989E591E0215092
:1013A00080409040E1F7000044E650E068E087EBC1
:1013B00091E00E94ED04883009F041C028EC48E03B
:1013C000B8018FEE91E00E944105883089F4D70181
:1013D000BB27A655BE4FE0911001F09111018C91F1
:1013E00009956E2D8BE190E00E94540F11E001C031
:1013F00010E0A8952FEF8FEF96E8215080409040A5
:10140000E1F700C000004CE251E068E087EE91E0B7
:101410000E94ED04883009F010E01A82812F10C07C
:101420008BE190E00E943C0FBE016E5F7F4F4AE06F
:1014300090E00E94A90E81E003C080E001C080E03E
:10144000CDB7DEB7E6E00C94340EA0E0B0E0EBE2FE
:10145000FAE00C94160EFC012281222309F45FC0ED
:10146000EC018C010E5F1F4FC8010E94430EBC01AE
:10147000990F880B990B0E94DB0C6B017C0120E01B
:1014800030E04CE852EC0E94330C88230CF449C045
:1014900020E030E040E850E4C701B6010E948B0D27
:1014A00018160CF440C0F9E929E531E0F15020406C
:1014B0003040E1F7000044E650E068E087EB91E05F
:1014C0000E94ED04883089F528EC48E0B80183EFEC
:1014D00091E00E944105182F8FEF9FEFE8E08150C7
:1014E0009040E040E1F700C000004CE251E068E0CD
:1014F00087EE91E00E94ED04883029F491E01830E5
:1015000019F090E001C090E0F9E929E531E0F150EF
:1015100020403040E1F700001A82892F07C080E0A8
:1015200005C080E003C080E001C080E0CDB7DEB739
:10153000E8E00C94320ECF93DF93EC0186E00E943A
:10154000C902AE014E5F5F4F2AE00E94B40E81E0F7
:10155000DF91CF910895CF93DF93EC018A818111C0
:1015600009C044E650E06CE170E0CE0102960E94B2
:101570002C0F09C044E650E06CE170E0CE01029609
:101580000E94440F1A8281E0DF91CF910895CF939A
:10159000DF93EC018A81811109C04CE050E060E8E2
:1015A00070E0CE0102960E942C0F09C04CE050E082
:1015B00060E870E0CE0102960E94440F1A8281E03A
:1015C000DF91CF910895DC01ED91FC9180819181B3
:1015D0000E94390680EB91E00E9439060E941106B4
:1015E00080E008958091C402882311F1E0915E02A9
:1015F000F0915F020380F481E02D8EE592E0099581
:10160000882381F0E0915E02F0915F0280819181F8
:101610000E94390680E692E00E94390680EB91E054
:101620000E9439061092C40210925C0210925B0272
:101630000895EF92FF920F931F93CF93DF9308E1EA
:1016400011E0C0E0D0E07E01F801608171818BED96
:1016500092E00E948F0E892BF1F0CE01880F991F26
:10166000880F991F8C0F9D1F9C01285E3E4F309361
:101670005F0220935E02865E9E4F9093CC03809320
:10168000CB036EED72E080E692E00E94880E81E06E
:101690008093C40208C021960B5F1F4FCA31D10549
:1016A00091F61092C402CDB7DEB7E6E00C94340E8A
:1016B0008A3049F08D3061F4E0915D02F0E0E5524E
:1016C000FD4F108208950E94190B10925D0208953B
:1016D000E0915D0291E09E0F90935D02F0E0E55293
:1016E000FD4F80830895CF92DF92EF92FF92CF93C8
:1016F000C82FA8950E9484026B017C01A8958C2FAD
:101700000E948402C60ED71EE81EF91EF694E794C6
:10171000D794C794C0925503D0925603E0925703D2
:10172000F0925803CF91FF90EF90DF90CF90089503
:10173000CF93DF93EC0180E00E94730B1A8281E06B
:10174000DF91CF9108950F931F930E94840200911F
:101750005503109156032091570330915803601B95
:10176000710B820B930B1F910F910895CF93DF9311
:10177000EC0180E00E94A30BAE014E5F5F4F2AE0B8
:101780000E94B40E81E0DF91CF9108955058BB279D
:10179000AA270E94DE0B0C94510D0E94430D38F0D5
:1017A0000E944A0D20F039F49F3F19F426F40C945E
:1017B000400D0EF4E095E7FB0C943A0DE92F0E94E2
:1017C000620D58F3BA17620773078407950720F074
:1017D00079F4A6F50C94840D0EF4E0950B2EBA2F37
:1017E000A02D0B01B90190010C01CA01A001112427
:1017F000FF27591B99F0593F50F4503E68F11A16D3
:10180000F040A22F232F342F4427585FF3CF469563
:1018100037952795A795F0405395C9F77EF41F1685
:10182000BA0B620B730B840BBAF09150A1F0FF0F4F
:10183000BB1F661F771F881FC2F70EC0BA0F621F3B
:10184000731F841F48F4879577956795B795F7952B
:101850009E3F08F0B0CF9395880F08F09927EE0FC0
:101860009795879508950E94160D08F481E00895D4
:101870000E944C0C0C94510D0E944A0D58F00E948D
:10188000430D40F029F45F3F29F00C943A0D5111BB
:101890000C94850D0C94400D0E94620D68F3992301
:1018A000B1F3552391F3951B550BBB27AA2762175C
:1018B0007307840738F09F5F5F4F220F331F441F69
:1018C000AA1FA9F335D00E2E3AF0E0E832D091509D
:1018D0005040E695001CCAF72BD0FE2F29D0660F8A
:1018E000771F881FBB1F261737074807AB07B0E8CD
:1018F00009F0BB0B802DBF01FF2793585F4F3AF0D3
:101900009E3F510578F00C943A0D0C94850D5F3F85
:10191000E4F3983ED4F3869577956795B795F79558
:101920009F5FC9F7880F911D9695879597F9089540
:10193000E1E0660F771F881FBB1F621773078407DC
:10194000BA0720F0621B730B840BBA0BEE1F88F7EB
:10195000E09508950E946A0D88F09F5798F0B92F7E
:101960009927B751B0F0E1F0660F771F881F991FD4
:101970001AF0BA95C9F714C0B13091F00E94840DE5
:10198000B1E008950C94840D672F782F8827B85FF5
:1019900039F0B93FCCF3869577956795B395D9F72C
:1019A0003EF490958095709561957F4F8F4F9F4F36
:1019B0000895E89409C097FB3EF490958095709542
:1019C00061957F4F8F4F9F4F9923A9F0F92F96E98B
:1019D000BB279395F695879577956795B795F11100
:1019E000F8CFFAF4BB0F11F460FF1BC06F5F7F4F9D
:1019F0008F4F9F4F16C0882311F096E911C07723AF
:101A000021F09EE8872F762F05C0662371F096E8B7
:101A1000862F70E060E02AF09A95660F771F881F86
:101A2000DAF7880F9695879597F90895990F00082A
:101A3000550FAA0BE0E8FEEF16161706E807F907A0
:101A4000C0F012161306E407F50798F0621B730B3B
:101A5000840B950B39F40A2661F0232B242B252BBC
:101A600021F408950A2609F4A140A6958FEF811D5F
:101A7000811D089597F99F6780E870E060E0089500
:101A80009FEF80EC089500240A9416161706180696
:101A90000906089500240A94121613061406050672
:101AA0000895092E0394000C11F4882352F0BB0F03
:101AB00040F4BF2B11F460FF04C06F5F7F4F8F4F66
:101AC0009F4F089557FD9058440F551F59F05F3FA1
:101AD00071F04795880F97FB991F61F09F3F79F050
:101AE00087950895121613061406551FF2CF4695D2
:101AF000F1DF08C0161617061806991FF1CF869554
:101B00007105610508940895E894BB276627772737
:101B1000CB0197F908950E94160D08F48FEF0895F0
:101B20000E94A30D0C94510D0E94430D38F00E94A9
:101B30004A0D20F0952311F00C943A0D0C94400DB1
:101B400011240C94850D0E94620D70F3959FC1F3D2
:101B5000950F50E0551F629FF001729FBB27F00D5B
:101B6000B11D639FAA27F00DB11DAA1F649F6627B0
:101B7000B00DA11D661F829F2227B00DA11D621FFF
:101B8000739FB00DA11D621F839FA00D611D221FB9
:101B9000749F3327A00D611D231F849F600D211D9D
:101BA000822F762F6A2F11249F5750409AF0F1F020
:101BB00088234AF0EE0FFF1FBB1F661F771F881F89
:101BC00091505040A9F79E3F510580F00C943A0D7A
:101BD0000C94850D5F3FE4F3983ED4F3869577959A
:101BE0006795B795F795E7959F5FC1F7FE2B880F2F
:101BF000911D9695879597F90895A29FB001B39F7F
:101C0000C001A39F700D811D1124911DB29F700D05
:101C1000811D1124911D08952F923F924F925F9242
:101C20006F927F928F929F92AF92BF92CF92DF92EC
:101C3000EF92FF920F931F93CF93DF93CDB7DEB751
:101C4000CA1BDB0B0FB6F894DEBF0FBECDBF0994E5
:101C50002A88398848885F846E847D848C849B843C
:101C6000AA84B984C884DF80EE80FD800C811B814A
:101C7000AA81B981CE0FD11D0FB6F894DEBF0FBE79
:101C8000CDBFED010895FC0188279927E8942191A3
:101C90002032E9F3293010F02E30C8F32B3241F016
:101CA0002D3239F4689404C00E94D80E820F911D21
:101CB000219120532A30C0F31EF4909581959F4FB7
:101CC00008951F93FC0199278827BC01E89411917E
:101CD0001032E9F3193010F01E30C8F31B3251F006
:101CE0001D3249F4689406C00E94C30E610F711D35
:101CF000811D911D119110531A30B0F33EF490954F
:101D00008095709561957F4F8F4F9F4F1F910895DC
:101D1000FB01DC0101900D920020E1F70895FB0129
:101D200051915523A9F0BF01DC014D914517411197
:101D3000E1F759F4CD010190002049F04D91401593
:101D40004111C9F3FB014111EFCF81E090E0019710
:101D50000895BB274A3031F4992322F4BDE29095CF
:101D600081959F4F0C94030FBB272A3051F4992380
:101D700042F4BDE290958095709561957F4F8F4FAD
:101D80009F4F0C94E10E592F482F372F262F660FA7
:101D9000771F881F991F660F771F881F991F620F73
:101DA000731F841F951F660F771F881F991F089543
:101DB0007AE0979F902D879F802D910D1124089593
:101DC000BB27FA01A62F6217710581059105330B18
:101DD00030FB66F0AA27660F771F881F991FAA1F7E
:101DE000A21710F0A21B63953850A9F7A05DAA3383
:101DF00008F0A95DA19336F7B111B1931082CA0121
:101E00000C941C0FBB27FB015527AA27880F991F8D
:101E1000AA1FA41710F0A41B83955051B9F7A05D19
:101E2000AA3308F0A95DA193009779F7B111B19396
:101E30001192CB010C941C0FDC01FC01672F7191F6
:101E40007723E1F7329704C07C916D9370836291A0
:101E5000AE17BF07C8F30895DC01CB01FC01F99967
:101E6000FECF06C0F2BDE1BDF89A319600B40D92E6
:101E700041505040B8F70895F999FECF92BD81BD09
:101E8000F89A992780B50895DC01A40FB51F415039
:101E9000504048F0CB01840F951F2E910E94550FA2
:101EA00041505040D0F70895262FF999FECF92BDAA
:101EB00081BDF89A019700B4021639F01FBA20BD0F
:101EC0000FB6F894FA9AF99A0FBE08950196272F43
:0C1ED0000E94550F0C94540FF894FFCFA3
:101EDC00C802CA02C5022B0621061C061306F20A0A
:101EEC00650668064F063906F70114B60BFB010EA2
:101EFC005B09FF01179B0A030215980B070211419E
:101F0C00080B0218AB0A0F020261081302075708EC
:101F1C001702036B081B02057408BB010683081F1C
:101F2C0002083B082202093D0828020492082C02F0
:101F3C00013F0830020B990834020C0C0938020DD1
:101F4C00C7083C020F6E09400210B5094402124C3E
:101F5C0008480213FC084C0216EC08500219E30A5C
:101F6C0054021AC70AF3011B250A5A0359034B03DF
:101F7C00C402574B500050415200002F170B07035F
:101F8C000D0A0041542300454E440044534300576E
:101F9C00656967687453696D706C6534004D4243B4
:101FAC0030342E33362E350031005343520031324B
:101FBC00333400504E5500534E44004E414D0042B8
:101FCC004155004D54500044434F00474254004487
:101FDC00544D0053434F0056525300444154005249
:101FEC005150005343510050524400434F4E004F48
:101FFC004B004552524F520052505400504F4E001D
:10200C0046414400544F460043425400534E410055
:10201C0042535400485257004443480047434F0032
:08202C00504F460053524300DF
:00000001FF
